{
  "abi": [
    {
      "inputs": [
        {
          "internalType": "uint256",
          "name": "x",
          "type": "uint256"
        },
        {
          "internalType": "uint256",
          "name": "y",
          "type": "uint256"
        },
        {
          "internalType": "uint256",
          "name": "denominator",
          "type": "uint256"
        }
      ],
      "name": "PRBMath_MulDiv_Overflow",
      "type": "error"
    },
    {
      "inputs": [
        {
          "internalType": "uint256",
          "name": "x",
          "type": "uint256"
        }
      ],
      "name": "OzLog2",
      "outputs": [
        {
          "internalType": "uint256",
          "name": "result",
          "type": "uint256"
        }
      ],
      "stateMutability": "nonpayable",
      "type": "function"
    },
    {
      "inputs": [
        {
          "internalType": "uint256",
          "name": "x",
          "type": "uint256"
        }
      ],
      "name": "OzLog2Up",
      "outputs": [
        {
          "internalType": "uint256",
          "name": "result",
          "type": "uint256"
        }
      ],
      "stateMutability": "nonpayable",
      "type": "function"
    },
    {
      "inputs": [
        {
          "internalType": "uint256",
          "name": "x",
          "type": "uint256"
        },
        {
          "internalType": "uint256",
          "name": "y",
          "type": "uint256"
        },
        {
          "internalType": "uint256",
          "name": "z",
          "type": "uint256"
        }
      ],
      "name": "OzMulDivDown",
      "outputs": [
        {
          "internalType": "uint256",
          "name": "result",
          "type": "uint256"
        }
      ],
      "stateMutability": "nonpayable",
      "type": "function"
    },
    {
      "inputs": [
        {
          "internalType": "uint256",
          "name": "x",
          "type": "uint256"
        },
        {
          "internalType": "uint256",
          "name": "y",
          "type": "uint256"
        },
        {
          "internalType": "uint256",
          "name": "z",
          "type": "uint256"
        }
      ],
      "name": "OzMulDivUp",
      "outputs": [
        {
          "internalType": "uint256",
          "name": "result",
          "type": "uint256"
        }
      ],
      "stateMutability": "nonpayable",
      "type": "function"
    },
    {
      "inputs": [
        {
          "internalType": "uint256",
          "name": "x",
          "type": "uint256"
        }
      ],
      "name": "OzSqrt",
      "outputs": [
        {
          "internalType": "uint256",
          "name": "b",
          "type": "uint256"
        }
      ],
      "stateMutability": "nonpayable",
      "type": "function"
    },
    {
      "inputs": [
        {
          "internalType": "uint256",
          "name": "x",
          "type": "uint256"
        }
      ],
      "name": "paulSqrt",
      "outputs": [
        {
          "internalType": "uint256",
          "name": "c",
          "type": "uint256"
        }
      ],
      "stateMutability": "nonpayable",
      "type": "function"
    },
    {
      "inputs": [
        {
          "internalType": "uint256",
          "name": "x",
          "type": "uint256"
        },
        {
          "internalType": "uint256",
          "name": "y",
          "type": "uint256"
        },
        {
          "internalType": "uint256",
          "name": "z",
          "type": "uint256"
        }
      ],
      "name": "prbMulDivDown",
      "outputs": [
        {
          "internalType": "uint256",
          "name": "result",
          "type": "uint256"
        }
      ],
      "stateMutability": "nonpayable",
      "type": "function"
    },
    {
      "inputs": [
        {
          "internalType": "uint256",
          "name": "x",
          "type": "uint256"
        },
        {
          "internalType": "uint256",
          "name": "y",
          "type": "uint256"
        }
      ],
      "name": "soladyDivWadUp",
      "outputs": [
        {
          "internalType": "uint256",
          "name": "result",
          "type": "uint256"
        }
      ],
      "stateMutability": "nonpayable",
      "type": "function"
    },
    {
      "inputs": [
        {
          "internalType": "uint256",
          "name": "x",
          "type": "uint256"
        }
      ],
      "name": "soladyLog2",
      "outputs": [
        {
          "internalType": "uint256",
          "name": "result",
          "type": "uint256"
        }
      ],
      "stateMutability": "nonpayable",
      "type": "function"
    },
    {
      "inputs": [
        {
          "internalType": "uint256",
          "name": "x",
          "type": "uint256"
        }
      ],
      "name": "soladyLog2Up",
      "outputs": [
        {
          "internalType": "uint256",
          "name": "result",
          "type": "uint256"
        }
      ],
      "stateMutability": "nonpayable",
      "type": "function"
    },
    {
      "inputs": [
        {
          "internalType": "uint256",
          "name": "x",
          "type": "uint256"
        },
        {
          "internalType": "uint256",
          "name": "y",
          "type": "uint256"
        },
        {
          "internalType": "uint256",
          "name": "z",
          "type": "uint256"
        }
      ],
      "name": "soladyMulDivDown",
      "outputs": [
        {
          "internalType": "uint256",
          "name": "result",
          "type": "uint256"
        }
      ],
      "stateMutability": "nonpayable",
      "type": "function"
    },
    {
      "inputs": [
        {
          "internalType": "uint256",
          "name": "x",
          "type": "uint256"
        },
        {
          "internalType": "uint256",
          "name": "y",
          "type": "uint256"
        },
        {
          "internalType": "uint256",
          "name": "z",
          "type": "uint256"
        }
      ],
      "name": "soladyMulDivUp",
      "outputs": [
        {
          "internalType": "uint256",
          "name": "result",
          "type": "uint256"
        }
      ],
      "stateMutability": "nonpayable",
      "type": "function"
    },
    {
      "inputs": [
        {
          "internalType": "uint256",
          "name": "x",
          "type": "uint256"
        },
        {
          "internalType": "uint256",
          "name": "y",
          "type": "uint256"
        }
      ],
      "name": "soladyMulWadUp",
      "outputs": [
        {
          "internalType": "uint256",
          "name": "result",
          "type": "uint256"
        }
      ],
      "stateMutability": "nonpayable",
      "type": "function"
    },
    {
      "inputs": [
        {
          "internalType": "uint256",
          "name": "x",
          "type": "uint256"
        }
      ],
      "name": "soladySqrt",
      "outputs": [
        {
          "internalType": "uint256",
          "name": "d",
          "type": "uint256"
        }
      ],
      "stateMutability": "nonpayable",
      "type": "function"
    },
    {
      "inputs": [
        {
          "internalType": "uint256",
          "name": "x",
          "type": "uint256"
        },
        {
          "internalType": "uint256",
          "name": "y",
          "type": "uint256"
        }
      ],
      "name": "solmateDivWadUp",
      "outputs": [
        {
          "internalType": "uint256",
          "name": "result",
          "type": "uint256"
        }
      ],
      "stateMutability": "nonpayable",
      "type": "function"
    },
    {
      "inputs": [
        {
          "internalType": "uint256",
          "name": "x",
          "type": "uint256"
        },
        {
          "internalType": "uint256",
          "name": "y",
          "type": "uint256"
        },
        {
          "internalType": "uint256",
          "name": "z",
          "type": "uint256"
        }
      ],
      "name": "solmateMulDivDown",
      "outputs": [
        {
          "internalType": "uint256",
          "name": "result",
          "type": "uint256"
        }
      ],
      "stateMutability": "nonpayable",
      "type": "function"
    },
    {
      "inputs": [
        {
          "internalType": "uint256",
          "name": "x",
          "type": "uint256"
        },
        {
          "internalType": "uint256",
          "name": "y",
          "type": "uint256"
        },
        {
          "internalType": "uint256",
          "name": "z",
          "type": "uint256"
        }
      ],
      "name": "solmateMulDivUp",
      "outputs": [
        {
          "internalType": "uint256",
          "name": "result",
          "type": "uint256"
        }
      ],
      "stateMutability": "nonpayable",
      "type": "function"
    },
    {
      "inputs": [
        {
          "internalType": "uint256",
          "name": "x",
          "type": "uint256"
        },
        {
          "internalType": "uint256",
          "name": "y",
          "type": "uint256"
        }
      ],
      "name": "solmateMulWadUp",
      "outputs": [
        {
          "internalType": "uint256",
          "name": "result",
          "type": "uint256"
        }
      ],
      "stateMutability": "nonpayable",
      "type": "function"
    },
    {
      "inputs": [
        {
          "internalType": "uint256",
          "name": "x",
          "type": "uint256"
        }
      ],
      "name": "solmateSqrt",
      "outputs": [
        {
          "internalType": "uint256",
          "name": "a",
          "type": "uint256"
        }
      ],
      "stateMutability": "nonpayable",
      "type": "function"
    }
  ],
  "bytecode": {
    "object": "0x608060405234801561001057600080fd5b50610dc6806100206000396000f3fe608060405234801561001057600080fd5b50600436106101505760003560e01c80637e47fae4116100cd578063c0be4d5011610081578063eab8d7c111610066578063eab8d7c114610297578063f71cbe58146102aa578063f98fff66146102bd57600080fd5b8063c0be4d5014610271578063c231c5051461028457600080fd5b80639884a9af116100b25780639884a9af146102385780639c4d2f0b1461024b578063a1b8882f1461025e57600080fd5b80637e47fae414610212578063961f6be21461022557600080fd5b806334a125631161012457806344d1a1841161010957806344d1a184146101d957806368463579146101ec57806371f11665146101ff57600080fd5b806334a12563146101b35780633810ec52146101c657600080fd5b80620295f3146101555780631099edd61461017a57806314c66ab81461018d57806317b2a7ce146101a0575b600080fd5b610168610163366004610c91565b6102d0565b60405190815260200160405180910390f35b610168610188366004610cbd565b6102e7565b61016861019b366004610cdf565b6102fa565b6101686101ae366004610cbd565b61030b565b6101686101c1366004610cbd565b610317565b6101686101d4366004610cbd565b610323565b6101686101e7366004610cdf565b61032f565b6101686101fa366004610cdf565b61033a565b61016861020d366004610cdf565b610345565b610168610220366004610cdf565b610350565b610168610233366004610c91565b61035d565b610168610246366004610cdf565b61036a565b610168610259366004610c91565b610375565b61016861026c366004610cdf565b610382565b61016861027f366004610c91565b610414565b610168610292366004610c91565b610421565b6101686102a5366004610cdf565b61042e565b6101686102b8366004610c91565b610439565b6101686102cb366004610c91565b610446565b60006102df8484846000610451565b949350505050565b60006102f383836104ae565b9392505050565b6000610305826104c3565b92915050565b60006102f383836104fe565b60006102f38383610534565b60006102f38383610549565b6000610305826105a0565b600061030582610655565b6000610305826106e9565b600061030582600161079b565b60006102df8484846107e6565b60006103058261080d565b60006102df848484610992565b60006103058270ffffffffffffffffffffffffffffffffff811160071b81811c68ffffffffffffffffff1060061b1781811c64ffffffffff1060051b1781811c62ffffff1060041b1781811c620100000160b5600192831c1b0260121c80830401811c80830401811c80830401811c80830401811c80830401811c80830401811c80830401901c908190048111900390565b60006102df8484846109c7565b60006102df8484846109f6565b600061030582610a2b565b60006102df848484610b13565b60006102df84848460015b60008061045f868686610c21565b9050600183600281111561047557610475610cf8565b14801561049257506000848061048d5761048d610d27565b868809115b156104a5576104a2600182610d56565b90505b95945050505050565b60006102f38383670de0b6b3a76400006109f6565b60007fffffffffffffffffffffffffffffffffffffffffffffffffffffffffffffffff820182161515806104f6846105a0565b019392505050565b60008160001904831182021561051c5763bac65e5b6000526004601cfd5b50670de0b6b3a7640000910281810615159190040190565b60006102f383670de0b6b3a7640000846109f6565b60007812725dd1d243aba0e75fe645cc4873f9e65afe688c928e1f218311670de0b6b3a76400000215820261058657637c5f487d6000526004601cfd5b50670de0b6b3a76400009190910281810615159190040190565b6000816105b557635be3aa5c6000526004601cfd5b507e09010a0d15021d0b0e10121619031e080c141c0f111807131b17061a05041f7f07c4acdd000000000000000000000000000000000000000000000000000000006fffffffffffffffffffffffffffffffff831160071b83811c67ffffffffffffffff1060061b1783811c63ffffffff1060051b1792831c600181901c17600281901c17600481901c17600881901c17601081901c170260fb1c1a1790565b600080608083901c1561066a57608092831c92015b604083901c1561067c57604092831c92015b602083901c1561068e57602092831c92015b601083901c156106a057601092831c92015b600883901c156106b257600892831c92015b600483901c156106c457600492831c92015b600283901c156106d657600292831c92015b600183901c156103055760010192915050565b60b5817101000000000000000000000000000000000081106107105760409190911b9060801c5b6901000000000000000000811061072c5760209190911b9060401c5b6501000000000081106107445760109190911b9060201c5b6301000000811061075a5760089190911b9060101c5b62010000010260121c80820401600190811c80830401811c80830401811c80830401811c80830401811c80830401811c80830401901c908190048111900390565b6000806107a784610655565b905060018360028111156107bd576107bd610cf8565b1480156107cd575083816001901b105b6107d85760006107db565b60015b60ff16019392505050565b60008260001904841183021582026108065763ad251c276000526004601cfd5b5091020490565b60008160000361081f57506000919050565b5060018170010000000000000000000000000000000081106108465760409190911b9060801c5b6801000000000000000081106108615760209190911b9060401c5b64010000000081106108785760109190911b9060201c5b62010000811061088d5760089190911b9060101c5b61010081106108a15760049190911b9060081c5b601081106108b45760029190911b9060041c5b600481106108c457600182901b91505b60018284816108d5576108d5610d27565b048301901c915060018284816108ed576108ed610d27565b048301901c9150600182848161090557610905610d27565b048301901c9150600182848161091d5761091d610d27565b048301901c9150600182848161093557610935610d27565b048301901c9150600182848161094d5761094d610d27565b048301901c9150600182848161096557610965610d27565b048301901c9150600082848161097d5761097d610d27565b04905080831061098b578092505b5050919050565b6000827fffffffffffffffffffffffffffffffffffffffffffffffffffffffffffffffff048411830215820261080657600080fd5b60008260001904841183021582026109e75763ad251c276000526004601cfd5b50910281810615159190040190565b6000827fffffffffffffffffffffffffffffffffffffffffffffffffffffffffffffffff04841183021582026109e757600080fd5b600081600003610a3d57506000919050565b60006001610a4a84610655565b901c6001901b90506001818481610a6357610a63610d27565b048201901c90506001818481610a7b57610a7b610d27565b048201901c90506001818481610a9357610a93610d27565b048201901c90506001818481610aab57610aab610d27565b048201901c90506001818481610ac357610ac3610d27565b048201901c90506001818481610adb57610adb610d27565b048201901c90506001818481610af357610af3610d27565b048201901c90506102f381828581610b0d57610b0d610d27565b04610c7b565b600080807fffffffffffffffffffffffffffffffffffffffffffffffffffffffffffffffff85870985870292508281108382030391505080600003610b6b57838281610b6157610b61610d27565b04925050506102f3565b838110610bb9576040517f63a0577800000000000000000000000000000000000000000000000000000000815260048101879052602481018690526044810185905260640160405180910390fd5b600084868809600260036001881981018916988990049182028318808302840302808302840302808302840302808302840302808302840302918202909203026000889003889004909101858311909403939093029303949094049190911702949350505050565b600080807fffffffffffffffffffffffffffffffffffffffffffffffffffffffffffffffff85870985870292508281108382030391505080600003610c6f57838281610b6157610b61610d27565b808411610bb957600080fd5b6000818310610c8a57816102f3565b5090919050565b600080600060608486031215610ca657600080fd5b505081359360208301359350604090920135919050565b60008060408385031215610cd057600080fd5b50508035926020909101359150565b600060208284031215610cf157600080fd5b5035919050565b7f4e487b7100000000000000000000000000000000000000000000000000000000600052602160045260246000fd5b7f4e487b7100000000000000000000000000000000000000000000000000000000600052601260045260246000fd5b80820180821115610305577f4e487b7100000000000000000000000000000000000000000000000000000000600052601160045260246000fdfea26469706673582212209d1dc527116be41c7cfdaf1b30de282ee8716e7433a2d4682f1bca810c37eed564736f6c63430008130033",
    "linkReferences": {}
  },
  "methodIdentifiers": {
    "OzLog2(uint256)": "68463579",
    "OzLog2Up(uint256)": "7e47fae4",
    "OzMulDivDown(uint256,uint256,uint256)": "000295f3",
    "OzMulDivUp(uint256,uint256,uint256)": "f98fff66",
    "OzSqrt(uint256)": "eab8d7c1",
    "paulSqrt(uint256)": "9884a9af",
    "prbMulDivDown(uint256,uint256,uint256)": "f71cbe58",
    "soladyDivWadUp(uint256,uint256)": "3810ec52",
    "soladyLog2(uint256)": "44d1a184",
    "soladyLog2Up(uint256)": "14c66ab8",
    "soladyMulDivDown(uint256,uint256,uint256)": "961f6be2",
    "soladyMulDivUp(uint256,uint256,uint256)": "c0be4d50",
    "soladyMulWadUp(uint256,uint256)": "17b2a7ce",
    "soladySqrt(uint256)": "a1b8882f",
    "solmateDivWadUp(uint256,uint256)": "34a12563",
    "solmateMulDivDown(uint256,uint256,uint256)": "9c4d2f0b",
    "solmateMulDivUp(uint256,uint256,uint256)": "c231c505",
    "solmateMulWadUp(uint256,uint256)": "1099edd6",
    "solmateSqrt(uint256)": "71f11665"
  },
  "id": 22
}