{
  "abi": [
    {
      "inputs": [
        {
          "internalType": "uint256",
          "name": "x",
          "type": "uint256"
        }
      ],
      "name": "OzLog2",
      "outputs": [
        {
          "internalType": "uint256",
          "name": "result",
          "type": "uint256"
        }
      ],
      "stateMutability": "nonpayable",
      "type": "function"
    },
    {
      "inputs": [
        {
          "internalType": "uint256",
          "name": "x",
          "type": "uint256"
        }
      ],
      "name": "OzSqrt",
      "outputs": [
        {
          "internalType": "uint256",
          "name": "b",
          "type": "uint256"
        }
      ],
      "stateMutability": "nonpayable",
      "type": "function"
    },
    {
      "inputs": [
        {
          "internalType": "uint256",
          "name": "x",
          "type": "uint256"
        }
      ],
      "name": "paulSqrt",
      "outputs": [
        {
          "internalType": "uint256",
          "name": "c",
          "type": "uint256"
        }
      ],
      "stateMutability": "nonpayable",
      "type": "function"
    },
    {
      "inputs": [
        {
          "internalType": "uint256",
          "name": "x",
          "type": "uint256"
        }
      ],
      "name": "soladyLog2",
      "outputs": [
        {
          "internalType": "uint256",
          "name": "result",
          "type": "uint256"
        }
      ],
      "stateMutability": "nonpayable",
      "type": "function"
    },
    {
      "inputs": [
        {
          "internalType": "uint256",
          "name": "x",
          "type": "uint256"
        }
      ],
      "name": "soladySqrt",
      "outputs": [
        {
          "internalType": "uint256",
          "name": "d",
          "type": "uint256"
        }
      ],
      "stateMutability": "nonpayable",
      "type": "function"
    },
    {
      "inputs": [
        {
          "internalType": "uint256",
          "name": "x",
          "type": "uint256"
        }
      ],
      "name": "solmateSqrt",
      "outputs": [
        {
          "internalType": "uint256",
          "name": "a",
          "type": "uint256"
        }
      ],
      "stateMutability": "nonpayable",
      "type": "function"
    }
  ],
  "bytecode": {
    "object": "0x608060405234801561001057600080fd5b506106cd806100206000396000f3fe608060405234801561001057600080fd5b50600436106100725760003560e01c80639884a9af116100505780639884a9af146100c2578063a1b8882f146100d5578063eab8d7c1146100e857600080fd5b806344d1a18414610077578063684635791461009c57806371f11665146100af575b600080fd5b61008a61008536600461064f565b6100fb565b60405190815260200160405180910390f35b61008a6100aa36600461064f565b61010c565b61008a6100bd36600461064f565b610117565b61008a6100d036600461064f565b610122565b61008a6100e336600461064f565b61012d565b61008a6100f636600461064f565b6101bf565b6000610106826101ca565b92915050565b60006101068261027f565b600061010682610313565b6000610106826103c5565b60006101068270ffffffffffffffffffffffffffffffffff811160071b81811c68ffffffffffffffffff1060061b1781811c64ffffffffff1060051b1781811c62ffffff1060041b1781811c620100000160b5600192831c1b0260121c80830401811c80830401811c80830401811c80830401811c80830401811c80830401811c80830401901c908190048111900390565b60006101068261054a565b6000816101df57635be3aa5c6000526004601cfd5b507e09010a0d15021d0b0e10121619031e080c141c0f111807131b17061a05041f7f07c4acdd000000000000000000000000000000000000000000000000000000006fffffffffffffffffffffffffffffffff831160071b83811c67ffffffffffffffff1060061b1783811c63ffffffff1060051b1792831c600181901c17600281901c17600481901c17600881901c17601081901c170260fb1c1a1790565b600080608083901c1561029457608092831c92015b604083901c156102a657604092831c92015b602083901c156102b857602092831c92015b601083901c156102ca57601092831c92015b600883901c156102dc57600892831c92015b600483901c156102ee57600492831c92015b600283901c1561030057600292831c92015b600183901c156101065760010192915050565b60b58171010000000000000000000000000000000000811061033a5760409190911b9060801c5b690100000000000000000081106103565760209190911b9060401c5b65010000000000811061036e5760109190911b9060201c5b630100000081106103845760089190911b9060101c5b62010000010260121c80820401600190811c80830401811c80830401811c80830401811c80830401811c80830401811c80830401901c908190048111900390565b6000816000036103d757506000919050565b5060018170010000000000000000000000000000000081106103fe5760409190911b9060801c5b6801000000000000000081106104195760209190911b9060401c5b64010000000081106104305760109190911b9060201c5b6201000081106104455760089190911b9060101c5b61010081106104595760049190911b9060081c5b6010811061046c5760029190911b9060041c5b6004811061047c57600182901b91505b600182848161048d5761048d610668565b048301901c915060018284816104a5576104a5610668565b048301901c915060018284816104bd576104bd610668565b048301901c915060018284816104d5576104d5610668565b048301901c915060018284816104ed576104ed610668565b048301901c9150600182848161050557610505610668565b048301901c9150600182848161051d5761051d610668565b048301901c9150600082848161053557610535610668565b049050808310610543578092505b5050919050565b60008160000361055c57506000919050565b600060016105698461027f565b901c6001901b9050600181848161058257610582610668565b048201901c9050600181848161059a5761059a610668565b048201901c905060018184816105b2576105b2610668565b048201901c905060018184816105ca576105ca610668565b048201901c905060018184816105e2576105e2610668565b048201901c905060018184816105fa576105fa610668565b048201901c9050600181848161061257610612610668565b048201901c90506106328182858161062c5761062c610668565b04610639565b9392505050565b60008183106106485781610632565b5090919050565b60006020828403121561066157600080fd5b5035919050565b7f4e487b7100000000000000000000000000000000000000000000000000000000600052601260045260246000fdfea264697066735822122069d39cd1cf3f4c6e560453e5b7c8d21f685bf3152abb3589d051ff963b24abcd64736f6c63430008130033",
    "linkReferences": {}
  },
  "methodIdentifiers": {
    "OzLog2(uint256)": "68463579",
    "OzSqrt(uint256)": "eab8d7c1",
    "paulSqrt(uint256)": "9884a9af",
    "soladyLog2(uint256)": "44d1a184",
    "soladySqrt(uint256)": "a1b8882f",
    "solmateSqrt(uint256)": "71f11665"
  },
  "id": 22
}