{
  "abi": [
    {
      "inputs": [
        {
          "internalType": "uint256",
          "name": "x",
          "type": "uint256"
        }
      ],
      "name": "OzSqrt",
      "outputs": [
        {
          "internalType": "uint256",
          "name": "b",
          "type": "uint256"
        }
      ],
      "stateMutability": "nonpayable",
      "type": "function"
    },
    {
      "inputs": [
        {
          "internalType": "uint256",
          "name": "x",
          "type": "uint256"
        }
      ],
      "name": "paulSqrt",
      "outputs": [
        {
          "internalType": "uint256",
          "name": "c",
          "type": "uint256"
        }
      ],
      "stateMutability": "nonpayable",
      "type": "function"
    },
    {
      "inputs": [
        {
          "internalType": "uint256",
          "name": "x",
          "type": "uint256"
        }
      ],
      "name": "soladySqrt",
      "outputs": [
        {
          "internalType": "uint256",
          "name": "d",
          "type": "uint256"
        }
      ],
      "stateMutability": "nonpayable",
      "type": "function"
    },
    {
      "inputs": [
        {
          "internalType": "uint256",
          "name": "x",
          "type": "uint256"
        }
      ],
      "name": "solmateSqrt",
      "outputs": [
        {
          "internalType": "uint256",
          "name": "a",
          "type": "uint256"
        }
      ],
      "stateMutability": "nonpayable",
      "type": "function"
    }
  ],
  "bytecode": {
    "object": "0x608060405234801561001057600080fd5b506105b6806100206000396000f3fe608060405234801561001057600080fd5b506004361061004c5760003560e01c806371f11665146100515780639884a9af14610076578063a1b8882f14610089578063eab8d7c11461009c575b600080fd5b61006461005f366004610538565b6100af565b60405190815260200160405180910390f35b610064610084366004610538565b6100c0565b610064610097366004610538565b6100cb565b6100646100aa366004610538565b61015d565b60006100ba82610168565b92915050565b60006100ba8261021a565b60006100ba8270ffffffffffffffffffffffffffffffffff811160071b81811c68ffffffffffffffffff1060061b1781811c64ffffffffff1060051b1781811c62ffffff1060041b1781811c620100000160b5600192831c1b0260121c80830401811c80830401811c80830401811c80830401811c80830401811c80830401811c80830401901c908190048111900390565b60006100ba8261039f565b60b58171010000000000000000000000000000000000811061018f5760409190911b9060801c5b690100000000000000000081106101ab5760209190911b9060401c5b6501000000000081106101c35760109190911b9060201c5b630100000081106101d95760089190911b9060101c5b62010000010260121c80820401600190811c80830401811c80830401811c80830401811c80830401811c80830401811c80830401901c908190048111900390565b60008160000361022c57506000919050565b5060018170010000000000000000000000000000000081106102535760409190911b9060801c5b68010000000000000000811061026e5760209190911b9060401c5b64010000000081106102855760109190911b9060201c5b62010000811061029a5760089190911b9060101c5b61010081106102ae5760049190911b9060081c5b601081106102c15760029190911b9060041c5b600481106102d157600182901b91505b60018284816102e2576102e2610551565b048301901c915060018284816102fa576102fa610551565b048301901c9150600182848161031257610312610551565b048301901c9150600182848161032a5761032a610551565b048301901c9150600182848161034257610342610551565b048301901c9150600182848161035a5761035a610551565b048301901c9150600182848161037257610372610551565b048301901c9150600082848161038a5761038a610551565b049050808310610398578092505b5050919050565b6000816000036103b157506000919050565b600060016103be8461048e565b901c6001901b905060018184816103d7576103d7610551565b048201901c905060018184816103ef576103ef610551565b048201901c9050600181848161040757610407610551565b048201901c9050600181848161041f5761041f610551565b048201901c9050600181848161043757610437610551565b048201901c9050600181848161044f5761044f610551565b048201901c9050600181848161046757610467610551565b048201901c90506104878182858161048157610481610551565b04610522565b9392505050565b600080608083901c156104a357608092831c92015b604083901c156104b557604092831c92015b602083901c156104c757602092831c92015b601083901c156104d957601092831c92015b600883901c156104eb57600892831c92015b600483901c156104fd57600492831c92015b600283901c1561050f57600292831c92015b600183901c156100ba5760010192915050565b60008183106105315781610487565b5090919050565b60006020828403121561054a57600080fd5b5035919050565b7f4e487b7100000000000000000000000000000000000000000000000000000000600052601260045260246000fdfea2646970667358221220c8ca4a4e84dcb6c5fd03401e1c3551b8d5cf00072070335c3d4f22c51f653e9164736f6c63430008130033",
    "linkReferences": {}
  },
  "methodIdentifiers": {
    "OzSqrt(uint256)": "eab8d7c1",
    "paulSqrt(uint256)": "9884a9af",
    "soladySqrt(uint256)": "a1b8882f",
    "solmateSqrt(uint256)": "71f11665"
  },
  "id": 25
}