{
  "abi": [
    {
      "inputs": [
        {
          "internalType": "uint256",
          "name": "x",
          "type": "uint256"
        },
        {
          "internalType": "uint256",
          "name": "y",
          "type": "uint256"
        },
        {
          "internalType": "uint256",
          "name": "denominator",
          "type": "uint256"
        }
      ],
      "name": "PRBMath_MulDiv_Overflow",
      "type": "error"
    },
    {
      "inputs": [
        {
          "internalType": "uint256",
          "name": "x",
          "type": "uint256"
        }
      ],
      "name": "OzLog2",
      "outputs": [
        {
          "internalType": "uint256",
          "name": "result",
          "type": "uint256"
        }
      ],
      "stateMutability": "nonpayable",
      "type": "function"
    },
    {
      "inputs": [
        {
          "internalType": "uint256",
          "name": "x",
          "type": "uint256"
        }
      ],
      "name": "OzLog2Up",
      "outputs": [
        {
          "internalType": "uint256",
          "name": "result",
          "type": "uint256"
        }
      ],
      "stateMutability": "nonpayable",
      "type": "function"
    },
    {
      "inputs": [
        {
          "internalType": "uint256",
          "name": "x",
          "type": "uint256"
        },
        {
          "internalType": "uint256",
          "name": "y",
          "type": "uint256"
        },
        {
          "internalType": "uint256",
          "name": "z",
          "type": "uint256"
        }
      ],
      "name": "OzMulDivDown",
      "outputs": [
        {
          "internalType": "uint256",
          "name": "result",
          "type": "uint256"
        }
      ],
      "stateMutability": "nonpayable",
      "type": "function"
    },
    {
      "inputs": [
        {
          "internalType": "uint256",
          "name": "x",
          "type": "uint256"
        },
        {
          "internalType": "uint256",
          "name": "y",
          "type": "uint256"
        },
        {
          "internalType": "uint256",
          "name": "z",
          "type": "uint256"
        }
      ],
      "name": "OzMulDivUp",
      "outputs": [
        {
          "internalType": "uint256",
          "name": "result",
          "type": "uint256"
        }
      ],
      "stateMutability": "nonpayable",
      "type": "function"
    },
    {
      "inputs": [
        {
          "internalType": "uint256",
          "name": "x",
          "type": "uint256"
        }
      ],
      "name": "OzSqrt",
      "outputs": [
        {
          "internalType": "uint256",
          "name": "b",
          "type": "uint256"
        }
      ],
      "stateMutability": "nonpayable",
      "type": "function"
    },
    {
      "inputs": [
        {
          "internalType": "uint256",
          "name": "x",
          "type": "uint256"
        }
      ],
      "name": "paulSqrt",
      "outputs": [
        {
          "internalType": "uint256",
          "name": "c",
          "type": "uint256"
        }
      ],
      "stateMutability": "nonpayable",
      "type": "function"
    },
    {
      "inputs": [
        {
          "internalType": "uint256",
          "name": "x",
          "type": "uint256"
        },
        {
          "internalType": "uint256",
          "name": "y",
          "type": "uint256"
        },
        {
          "internalType": "uint256",
          "name": "z",
          "type": "uint256"
        }
      ],
      "name": "prbMulDivDown",
      "outputs": [
        {
          "internalType": "uint256",
          "name": "result",
          "type": "uint256"
        }
      ],
      "stateMutability": "nonpayable",
      "type": "function"
    },
    {
      "inputs": [
        {
          "internalType": "uint256",
          "name": "x",
          "type": "uint256"
        }
      ],
      "name": "soladyLog2",
      "outputs": [
        {
          "internalType": "uint256",
          "name": "result",
          "type": "uint256"
        }
      ],
      "stateMutability": "nonpayable",
      "type": "function"
    },
    {
      "inputs": [
        {
          "internalType": "uint256",
          "name": "x",
          "type": "uint256"
        }
      ],
      "name": "soladyLog2Up",
      "outputs": [
        {
          "internalType": "uint256",
          "name": "result",
          "type": "uint256"
        }
      ],
      "stateMutability": "nonpayable",
      "type": "function"
    },
    {
      "inputs": [
        {
          "internalType": "uint256",
          "name": "x",
          "type": "uint256"
        },
        {
          "internalType": "uint256",
          "name": "y",
          "type": "uint256"
        },
        {
          "internalType": "uint256",
          "name": "z",
          "type": "uint256"
        }
      ],
      "name": "soladyMulDivDown",
      "outputs": [
        {
          "internalType": "uint256",
          "name": "result",
          "type": "uint256"
        }
      ],
      "stateMutability": "nonpayable",
      "type": "function"
    },
    {
      "inputs": [
        {
          "internalType": "uint256",
          "name": "x",
          "type": "uint256"
        },
        {
          "internalType": "uint256",
          "name": "y",
          "type": "uint256"
        },
        {
          "internalType": "uint256",
          "name": "z",
          "type": "uint256"
        }
      ],
      "name": "soladyMulDivUp",
      "outputs": [
        {
          "internalType": "uint256",
          "name": "result",
          "type": "uint256"
        }
      ],
      "stateMutability": "nonpayable",
      "type": "function"
    },
    {
      "inputs": [
        {
          "internalType": "uint256",
          "name": "x",
          "type": "uint256"
        }
      ],
      "name": "soladySqrt",
      "outputs": [
        {
          "internalType": "uint256",
          "name": "d",
          "type": "uint256"
        }
      ],
      "stateMutability": "nonpayable",
      "type": "function"
    },
    {
      "inputs": [
        {
          "internalType": "uint256",
          "name": "x",
          "type": "uint256"
        },
        {
          "internalType": "uint256",
          "name": "y",
          "type": "uint256"
        },
        {
          "internalType": "uint256",
          "name": "z",
          "type": "uint256"
        }
      ],
      "name": "solmateMulDivDown",
      "outputs": [
        {
          "internalType": "uint256",
          "name": "result",
          "type": "uint256"
        }
      ],
      "stateMutability": "nonpayable",
      "type": "function"
    },
    {
      "inputs": [
        {
          "internalType": "uint256",
          "name": "x",
          "type": "uint256"
        },
        {
          "internalType": "uint256",
          "name": "y",
          "type": "uint256"
        },
        {
          "internalType": "uint256",
          "name": "z",
          "type": "uint256"
        }
      ],
      "name": "solmateMulDivUp",
      "outputs": [
        {
          "internalType": "uint256",
          "name": "result",
          "type": "uint256"
        }
      ],
      "stateMutability": "nonpayable",
      "type": "function"
    },
    {
      "inputs": [
        {
          "internalType": "uint256",
          "name": "x",
          "type": "uint256"
        }
      ],
      "name": "solmateSqrt",
      "outputs": [
        {
          "internalType": "uint256",
          "name": "a",
          "type": "uint256"
        }
      ],
      "stateMutability": "nonpayable",
      "type": "function"
    }
  ],
  "bytecode": {
    "object": "0x608060405234801561001057600080fd5b50610c15806100206000396000f3fe608060405234801561001057600080fd5b50600436106100f45760003560e01c80639884a9af11610097578063c231c50511610066578063c231c505146101dc578063eab8d7c1146101ef578063f71cbe5814610202578063f98fff661461021557600080fd5b80639884a9af146101905780639c4d2f0b146101a3578063a1b8882f146101b6578063c0be4d50146101c957600080fd5b806368463579116100d3578063684635791461014457806371f11665146101575780637e47fae41461016a578063961f6be21461017d57600080fd5b80620295f3146100f957806314c66ab81461011e57806344d1a18414610131575b600080fd5b61010c610107366004610b02565b610228565b60405190815260200160405180910390f35b61010c61012c366004610b2e565b61023f565b61010c61013f366004610b2e565b610250565b61010c610152366004610b2e565b61025b565b61010c610165366004610b2e565b610266565b61010c610178366004610b2e565b610271565b61010c61018b366004610b02565b61027e565b61010c61019e366004610b2e565b61028b565b61010c6101b1366004610b02565b610296565b61010c6101c4366004610b2e565b6102a3565b61010c6101d7366004610b02565b610335565b61010c6101ea366004610b02565b610342565b61010c6101fd366004610b2e565b61034f565b61010c610210366004610b02565b61035a565b61010c610223366004610b02565b610367565b60006102378484846000610372565b949350505050565b600061024a826103cf565b92915050565b600061024a8261040a565b600061024a826104bf565b600061024a82610553565b600061024a826001610605565b6000610237848484610650565b600061024a82610677565b60006102378484846107fc565b600061024a8270ffffffffffffffffffffffffffffffffff811160071b81811c68ffffffffffffffffff1060061b1781811c64ffffffffff1060051b1781811c62ffffff1060041b1781811c620100000160b5600192831c1b0260121c80830401811c80830401811c80830401811c80830401811c80830401811c80830401811c80830401901c908190048111900390565b6000610237848484610831565b6000610237848484610860565b600061024a82610895565b6000610237848484610984565b600061023784848460015b600080610380868686610a92565b9050600183600281111561039657610396610b47565b1480156103b35750600084806103ae576103ae610b76565b868809115b156103c6576103c3600182610ba5565b90505b95945050505050565b60007fffffffffffffffffffffffffffffffffffffffffffffffffffffffffffffffff820182161515806104028461040a565b019392505050565b60008161041f57635be3aa5c6000526004601cfd5b507e09010a0d15021d0b0e10121619031e080c141c0f111807131b17061a05041f7f07c4acdd000000000000000000000000000000000000000000000000000000006fffffffffffffffffffffffffffffffff831160071b83811c67ffffffffffffffff1060061b1783811c63ffffffff1060051b1792831c600181901c17600281901c17600481901c17600881901c17601081901c170260fb1c1a1790565b600080608083901c156104d457608092831c92015b604083901c156104e657604092831c92015b602083901c156104f857602092831c92015b601083901c1561050a57601092831c92015b600883901c1561051c57600892831c92015b600483901c1561052e57600492831c92015b600283901c1561054057600292831c92015b600183901c1561024a5760010192915050565b60b58171010000000000000000000000000000000000811061057a5760409190911b9060801c5b690100000000000000000081106105965760209190911b9060401c5b6501000000000081106105ae5760109190911b9060201c5b630100000081106105c45760089190911b9060101c5b62010000010260121c80820401600190811c80830401811c80830401811c80830401811c80830401811c80830401811c80830401901c908190048111900390565b600080610611846104bf565b9050600183600281111561062757610627610b47565b148015610637575083816001901b105b610642576000610645565b60015b60ff16019392505050565b60008260001904841183021582026106705763ad251c276000526004601cfd5b5091020490565b60008160000361068957506000919050565b5060018170010000000000000000000000000000000081106106b05760409190911b9060801c5b6801000000000000000081106106cb5760209190911b9060401c5b64010000000081106106e25760109190911b9060201c5b6201000081106106f75760089190911b9060101c5b610100811061070b5760049190911b9060081c5b6010811061071e5760029190911b9060041c5b6004811061072e57600182901b91505b600182848161073f5761073f610b76565b048301901c9150600182848161075757610757610b76565b048301901c9150600182848161076f5761076f610b76565b048301901c9150600182848161078757610787610b76565b048301901c9150600182848161079f5761079f610b76565b048301901c915060018284816107b7576107b7610b76565b048301901c915060018284816107cf576107cf610b76565b048301901c915060008284816107e7576107e7610b76565b0490508083106107f5578092505b5050919050565b6000827fffffffffffffffffffffffffffffffffffffffffffffffffffffffffffffffff048411830215820261067057600080fd5b60008260001904841183021582026108515763ad251c276000526004601cfd5b50910281810615159190040190565b6000827fffffffffffffffffffffffffffffffffffffffffffffffffffffffffffffffff048411830215820261085157600080fd5b6000816000036108a757506000919050565b600060016108b4846104bf565b901c6001901b905060018184816108cd576108cd610b76565b048201901c905060018184816108e5576108e5610b76565b048201901c905060018184816108fd576108fd610b76565b048201901c9050600181848161091557610915610b76565b048201901c9050600181848161092d5761092d610b76565b048201901c9050600181848161094557610945610b76565b048201901c9050600181848161095d5761095d610b76565b048201901c905061097d8182858161097757610977610b76565b04610aec565b9392505050565b600080807fffffffffffffffffffffffffffffffffffffffffffffffffffffffffffffffff858709858702925082811083820303915050806000036109dc578382816109d2576109d2610b76565b049250505061097d565b838110610a2a576040517f63a0577800000000000000000000000000000000000000000000000000000000815260048101879052602481018690526044810185905260640160405180910390fd5b600084868809600260036001881981018916988990049182028318808302840302808302840302808302840302808302840302808302840302918202909203026000889003889004909101858311909403939093029303949094049190911702949350505050565b600080807fffffffffffffffffffffffffffffffffffffffffffffffffffffffffffffffff85870985870292508281108382030391505080600003610ae0578382816109d2576109d2610b76565b808411610a2a57600080fd5b6000818310610afb578161097d565b5090919050565b600080600060608486031215610b1757600080fd5b505081359360208301359350604090920135919050565b600060208284031215610b4057600080fd5b5035919050565b7f4e487b7100000000000000000000000000000000000000000000000000000000600052602160045260246000fd5b7f4e487b7100000000000000000000000000000000000000000000000000000000600052601260045260246000fd5b8082018082111561024a577f4e487b7100000000000000000000000000000000000000000000000000000000600052601160045260246000fdfea2646970667358221220440f25f554e7bc2dba4c075bf55033077db61123b2167b0278c3f668132abf8a64736f6c63430008130033",
    "linkReferences": {}
  },
  "methodIdentifiers": {
    "OzLog2(uint256)": "68463579",
    "OzLog2Up(uint256)": "7e47fae4",
    "OzMulDivDown(uint256,uint256,uint256)": "000295f3",
    "OzMulDivUp(uint256,uint256,uint256)": "f98fff66",
    "OzSqrt(uint256)": "eab8d7c1",
    "paulSqrt(uint256)": "9884a9af",
    "prbMulDivDown(uint256,uint256,uint256)": "f71cbe58",
    "soladyLog2(uint256)": "44d1a184",
    "soladyLog2Up(uint256)": "14c66ab8",
    "soladyMulDivDown(uint256,uint256,uint256)": "961f6be2",
    "soladyMulDivUp(uint256,uint256,uint256)": "c0be4d50",
    "soladySqrt(uint256)": "a1b8882f",
    "solmateMulDivDown(uint256,uint256,uint256)": "9c4d2f0b",
    "solmateMulDivUp(uint256,uint256,uint256)": "c231c505",
    "solmateSqrt(uint256)": "71f11665"
  },
  "id": 22
}