{
  "abi": [
    {
      "inputs": [
        {
          "internalType": "uint256",
          "name": "x",
          "type": "uint256"
        }
      ],
      "name": "OZ_sqrt",
      "outputs": [
        {
          "internalType": "uint256",
          "name": "",
          "type": "uint256"
        }
      ],
      "stateMutability": "pure",
      "type": "function"
    }
  ],
  "bytecode": {
    "object": "0x608060405234801561001057600080fd5b5061027d806100206000396000f3fe608060405234801561001057600080fd5b506004361061002b5760003560e01c8063fd72ba6414610030575b600080fd5b61004361003e3660046101ff565b610055565b60405190815260200160405180910390f35b600061006082610066565b92915050565b60008160000361007857506000919050565b6000600161008584610155565b901c6001901b9050600181848161009e5761009e610218565b048201901c905060018184816100b6576100b6610218565b048201901c905060018184816100ce576100ce610218565b048201901c905060018184816100e6576100e6610218565b048201901c905060018184816100fe576100fe610218565b048201901c9050600181848161011657610116610218565b048201901c9050600181848161012e5761012e610218565b048201901c905061014e8182858161014857610148610218565b046101e9565b9392505050565b600080608083901c1561016a57608092831c92015b604083901c1561017c57604092831c92015b602083901c1561018e57602092831c92015b601083901c156101a057601092831c92015b600883901c156101b257600892831c92015b600483901c156101c457600492831c92015b600283901c156101d657600292831c92015b600183901c156100605760010192915050565b60008183106101f8578161014e565b5090919050565b60006020828403121561021157600080fd5b5035919050565b7f4e487b7100000000000000000000000000000000000000000000000000000000600052601260045260246000fdfea264697066735822122040a43595803b144cee580092faaceea6f41a26618b9db0fa9117bbf403d8faec64736f6c63430008130033",
    "linkReferences": {}
  },
  "methodIdentifiers": {
    "OZ_sqrt(uint256)": "fd72ba64"
  },
  "id": 0
}