{
  "abi": [
    {
      "inputs": [],
      "name": "setUp",
      "outputs": [],
      "stateMutability": "nonpayable",
      "type": "function"
    },
    {
      "inputs": [],
      "name": "test_pass",
      "outputs": [],
      "stateMutability": "pure",
      "type": "function"
    }
  ],
  "bytecode": {
    "object": "0x6080604052348015600f57600080fd5b50606f80601d6000396000f3fe6080604052348015600f57600080fd5b506004361060325760003560e01c80630a9254e41460375780638ab68152146037575b600080fd5b00fea264697066735822122095a311271e6ab025f7cc56d289118e8ff7cb7cefbe06472e2f8f8616623fab3b64736f6c63430008130033",
    "linkReferences": {}
  },
  "methodIdentifiers": {
    "setUp()": "0a9254e4",
    "test_pass()": "8ab68152"
  },
  "id": 5
}