{
  "abi": [
    {
      "constant": true,
      "inputs": [
        {
          "internalType": "int256",
          "name": "x",
          "type": "int256"
        }
      ],
      "name": "abs",
      "outputs": [
        {
          "internalType": "int256",
          "name": "",
          "type": "int256"
        }
      ],
      "payable": false,
      "stateMutability": "pure",
      "type": "function"
    },
    {
      "constant": true,
      "inputs": [
        {
          "internalType": "int256",
          "name": "x",
          "type": "int256"
        },
        {
          "internalType": "int256",
          "name": "y",
          "type": "int256"
        }
      ],
      "name": "add",
      "outputs": [
        {
          "internalType": "int256",
          "name": "",
          "type": "int256"
        }
      ],
      "payable": false,
      "stateMutability": "pure",
      "type": "function"
    },
    {
      "constant": true,
      "inputs": [
        {
          "internalType": "int256",
          "name": "x",
          "type": "int256"
        },
        {
          "internalType": "uint8",
          "name": "_originDigits",
          "type": "uint8"
        },
        {
          "internalType": "uint8",
          "name": "_destinationDigits",
          "type": "uint8"
        }
      ],
      "name": "convertFixed",
      "outputs": [
        {
          "internalType": "int256",
          "name": "",
          "type": "int256"
        }
      ],
      "payable": false,
      "stateMutability": "pure",
      "type": "function"
    },
    {
      "constant": true,
      "inputs": [],
      "name": "digits",
      "outputs": [
        {
          "internalType": "uint8",
          "name": "",
          "type": "uint8"
        }
      ],
      "payable": false,
      "stateMutability": "pure",
      "type": "function"
    },
    {
      "constant": true,
      "inputs": [
        {
          "internalType": "int256",
          "name": "x",
          "type": "int256"
        },
        {
          "internalType": "int256",
          "name": "y",
          "type": "int256"
        }
      ],
      "name": "divide",
      "outputs": [
        {
          "internalType": "int256",
          "name": "",
          "type": "int256"
        }
      ],
      "payable": false,
      "stateMutability": "pure",
      "type": "function"
    },
    {
      "constant": true,
      "inputs": [],
      "name": "fixed1",
      "outputs": [
        {
          "internalType": "int256",
          "name": "",
          "type": "int256"
        }
      ],
      "payable": false,
      "stateMutability": "pure",
      "type": "function"
    },
    {
      "constant": true,
      "inputs": [
        {
          "internalType": "int256",
          "name": "x",
          "type": "int256"
        }
      ],
      "name": "fractional",
      "outputs": [
        {
          "internalType": "int256",
          "name": "",
          "type": "int256"
        }
      ],
      "payable": false,
      "stateMutability": "pure",
      "type": "function"
    },
    {
      "constant": true,
      "inputs": [
        {
          "internalType": "int256",
          "name": "x",
          "type": "int256"
        }
      ],
      "name": "fromFixed",
      "outputs": [
        {
          "internalType": "int256",
          "name": "",
          "type": "int256"
        }
      ],
      "payable": false,
      "stateMutability": "pure",
      "type": "function"
    },
    {
      "constant": true,
      "inputs": [
        {
          "internalType": "int256",
          "name": "x",
          "type": "int256"
        },
        {
          "internalType": "uint8",
          "name": "_destinationDigits",
          "type": "uint8"
        }
      ],
      "name": "fromFixed",
      "outputs": [
        {
          "internalType": "int256",
          "name": "",
          "type": "int256"
        }
      ],
      "payable": false,
      "stateMutability": "pure",
      "type": "function"
    },
    {
      "constant": true,
      "inputs": [
        {
          "internalType": "int256",
          "name": "x",
          "type": "int256"
        }
      ],
      "name": "integer",
      "outputs": [
        {
          "internalType": "int256",
          "name": "",
          "type": "int256"
        }
      ],
      "payable": false,
      "stateMutability": "pure",
      "type": "function"
    },
    {
      "constant": true,
      "inputs": [],
      "name": "maxFixedAdd",
      "outputs": [
        {
          "internalType": "int256",
          "name": "",
          "type": "int256"
        }
      ],
      "payable": false,
      "stateMutability": "pure",
      "type": "function"
    },
    {
      "constant": true,
      "inputs": [],
      "name": "maxFixedDiv",
      "outputs": [
        {
          "internalType": "int256",
          "name": "",
          "type": "int256"
        }
      ],
      "payable": false,
      "stateMutability": "pure",
      "type": "function"
    },
    {
      "constant": true,
      "inputs": [],
      "name": "maxFixedDivisor",
      "outputs": [
        {
          "internalType": "int256",
          "name": "",
          "type": "int256"
        }
      ],
      "payable": false,
      "stateMutability": "pure",
      "type": "function"
    },
    {
      "constant": true,
      "inputs": [],
      "name": "maxFixedMul",
      "outputs": [
        {
          "internalType": "int256",
          "name": "",
          "type": "int256"
        }
      ],
      "payable": false,
      "stateMutability": "pure",
      "type": "function"
    },
    {
      "constant": true,
      "inputs": [],
      "name": "maxFixedSub",
      "outputs": [
        {
          "internalType": "int256",
          "name": "",
          "type": "int256"
        }
      ],
      "payable": false,
      "stateMutability": "pure",
      "type": "function"
    },
    {
      "constant": true,
      "inputs": [],
      "name": "maxInt256",
      "outputs": [
        {
          "internalType": "int256",
          "name": "",
          "type": "int256"
        }
      ],
      "payable": false,
      "stateMutability": "pure",
      "type": "function"
    },
    {
      "constant": true,
      "inputs": [],
      "name": "maxNewFixed",
      "outputs": [
        {
          "internalType": "int256",
          "name": "",
          "type": "int256"
        }
      ],
      "payable": false,
      "stateMutability": "pure",
      "type": "function"
    },
    {
      "constant": true,
      "inputs": [],
      "name": "minInt256",
      "outputs": [
        {
          "internalType": "int256",
          "name": "",
          "type": "int256"
        }
      ],
      "payable": false,
      "stateMutability": "pure",
      "type": "function"
    },
    {
      "constant": true,
      "inputs": [],
      "name": "minNewFixed",
      "outputs": [
        {
          "internalType": "int256",
          "name": "",
          "type": "int256"
        }
      ],
      "payable": false,
      "stateMutability": "pure",
      "type": "function"
    },
    {
      "constant": true,
      "inputs": [],
      "name": "mulPrecision",
      "outputs": [
        {
          "internalType": "int256",
          "name": "",
          "type": "int256"
        }
      ],
      "payable": false,
      "stateMutability": "pure",
      "type": "function"
    },
    {
      "constant": true,
      "inputs": [
        {
          "internalType": "int256",
          "name": "x",
          "type": "int256"
        },
        {
          "internalType": "int256",
          "name": "y",
          "type": "int256"
        }
      ],
      "name": "multiply",
      "outputs": [
        {
          "internalType": "int256",
          "name": "",
          "type": "int256"
        }
      ],
      "payable": false,
      "stateMutability": "pure",
      "type": "function"
    },
    {
      "constant": true,
      "inputs": [
        {
          "internalType": "int256",
          "name": "x",
          "type": "int256"
        }
      ],
      "name": "newFixed",
      "outputs": [
        {
          "internalType": "int256",
          "name": "",
          "type": "int256"
        }
      ],
      "payable": false,
      "stateMutability": "pure",
      "type": "function"
    },
    {
      "constant": true,
      "inputs": [
        {
          "internalType": "int256",
          "name": "x",
          "type": "int256"
        },
        {
          "internalType": "uint8",
          "name": "_originDigits",
          "type": "uint8"
        }
      ],
      "name": "newFixed",
      "outputs": [
        {
          "internalType": "int256",
          "name": "",
          "type": "int256"
        }
      ],
      "payable": false,
      "stateMutability": "pure",
      "type": "function"
    },
    {
      "constant": true,
      "inputs": [
        {
          "internalType": "int256",
          "name": "numerator",
          "type": "int256"
        },
        {
          "internalType": "int256",
          "name": "denominator",
          "type": "int256"
        }
      ],
      "name": "newFixedFraction",
      "outputs": [
        {
          "internalType": "int256",
          "name": "",
          "type": "int256"
        }
      ],
      "payable": false,
      "stateMutability": "pure",
      "type": "function"
    },
    {
      "constant": true,
      "inputs": [
        {
          "internalType": "int256",
          "name": "x",
          "type": "int256"
        }
      ],
      "name": "reciprocal",
      "outputs": [
        {
          "internalType": "int256",
          "name": "",
          "type": "int256"
        }
      ],
      "payable": false,
      "stateMutability": "pure",
      "type": "function"
    },
    {
      "constant": true,
      "inputs": [
        {
          "internalType": "int256",
          "name": "x",
          "type": "int256"
        },
        {
          "internalType": "int256",
          "name": "y",
          "type": "int256"
        }
      ],
      "name": "subtract",
      "outputs": [
        {
          "internalType": "int256",
          "name": "",
          "type": "int256"
        }
      ],
      "payable": false,
      "stateMutability": "pure",
      "type": "function"
    }
  ],
  "bytecode": {
    "object": "0x610a01610026600b82828239805160001a60731461001957fe5b30600052607381538281f3fe73000000000000000000000000000000000000000030146080604052600436106101b85760003560e01c806395ac72cf116100f8578063b93ea812116100a1578063d6c1528b1161007b578063d6c1528b146103ae578063e179f252146103d4578063f5984236146103f1578063f800d672146102a0576101b8565b8063b93ea81214610351578063bd5cbd6214610374578063cf94513a14610391576101b8565b80639e20437c116100d25780639e20437c14610308578063a0601be714610326578063a5f3c23b1461032e576101b8565b806395ac72cf146102c05780639c15bca4146102e35780639ca7eb7614610300576101b8565b80633c4308a8116101655780637bc140ea1161013f5780637bc140ea146102a05780637c1bd7c8146102a8578063925d6dfd146102b057806393b027b4146102b8576101b8565b80633c4308a8146102475780634daaea531461026a578063718db30a14610298576101b8565b8063239909ea11610196578063239909ea146102115780632fd81f4614610219578063393ca44614610221576101b8565b80630e998993146101bd5780631b5ac4b5146101ec5780632179bb6c14610209575b600080fd5b6101da600480360360208110156101d357600080fd5b5035610414565b60408051918252519081900360200190f35b6101da6004803603602081101561020257600080fd5b503561042f565b6101da610454565b6101da610462565b6101da61047a565b6101da6004803603604081101561023757600080fd5b508035906020013560ff16610493565b6101da6004803603604081101561025d57600080fd5b50803590602001356104b0565b6101da6004803603606081101561028057600080fd5b5080359060ff60208201358116916040013516610640565b6101da610741565b6101da610765565b6101da61077f565b6101da6107a3565b6101da6107c7565b6101da600480360360408110156102d657600080fd5b50803590602001356107eb565b6101da600480360360208110156102f957600080fd5b5035610843565b6101da610865565b61031061086e565b6040805160ff9092168252519081900360200190f35b6101da610873565b6101da6004803603604081101561034457600080fd5b5080359060200135610897565b6101da6004803603604081101561036757600080fd5b50803590602001356108ed565b6101da6004803603602081101561038a57600080fd5b50356108fc565b6101da600480360360208110156103a757600080fd5b5035610930565b6101da600480360360408110156103c457600080fd5b508035906020013560ff16610954565b6101da600480360360208110156103ea57600080fd5b5035610968565b6101da6004803603604081101561040757600080fd5b508035906020013561098a565b600061041e610454565b828161042657fe5b0590505b919050565b600080821261043f57508061042a565b600082810390811361044d57fe5b905061042a565b69d3c21bcecceda100000090565b73af298d050e4395d69670b12b7f4100000000000090565b74a4a2d938028c28000000000000000000000000000090565b60006104a7836104a161086e565b84610640565b90505b92915050565b60008215806104bd575081155b156104ca575060006104aa565b6104d2610454565b8214156104e05750816104aa565b6104e8610454565b8314156104f65750806104aa565b6000610500610454565b61050985610968565b8161051057fe5b059050600061051e85610930565b9050600061052a610454565b61053386610968565b8161053a57fe5b059050600061054886610930565b90508382028415610565578285828161055d57fe5b051461056557fe5b600061056f610454565b82029050811561059257610581610454565b82828161058a57fe5b051461059257fe5b90508084840285156105b057848682816105a857fe5b05146105b057fe5b86840287156105cb57848882816105c357fe5b05146105cb57fe5b6105d3610865565b87816105db57fe5b0596506105e6610865565b85816105ee57fe5b059450868502871561060c578588828161060457fe5b051461060c57fe5b846106178185610897565b90506106238184610897565b905061062f8183610897565b9d9c50505050505050505050505050565b600060268360ff161115801561065a575060268260ff1611155b61066057fe5b60008260ff168460ff16111561069e575081830360ff8116600a0a6fffffffffffffffffffffffffffffffff16858161069557fe5b0591505061073a565b8260ff168460ff161015610735575082820360ff8116600a0a6fffffffffffffffffffffffffffffffff166106d16107c7565b816106d857fe5b058513156106e257fe5b60ff8116600a0a6fffffffffffffffffffffffffffffffff1661070361077f565b8161070a57fe5b0585121561071457fe5b60ff16600a0a6fffffffffffffffffffffffffffffffff168402905061073a565b849150505b9392505050565b7fffffffffffffffffffff6541eb32bb8ac4ad3b6d95698d86cabd2873c9ea30c690565b759abe14cd44753b52c4926a9672793542d78c3615cf3a90565b7f800000000000000000000000000000000000000000000000000000000000000090565b7f3fffffffffffffffffffffffffffffffffffffffffffffffffffffffffffffff90565b7f7fffffffffffffffffffffffffffffffffffffffffffffffffffffffffffffff90565b60006107f5610765565b8313156107fe57fe5b610806610765565b82131561080f57fe5b8161081657fe5b6000610821846108fc565b9050600061082e846108fc565b905061083a828261098a565b95945050505050565b60008161084c57fe5b81610855610454565b61085d610454565b028161042657fe5b64e8d4a5100090565b601890565b7fc00000000000000000000000000000000000000000000000000000000000000090565b600082820181841380156108ab5750600083135b156108c45783811380156108be57508281135b6108c457fe5b6000841280156108d45750600083125b156104a75783811280156108e757508281125b6104a757fe5b60006104a78383600003610897565b6000610906610765565b82131561090f57fe5b610917610741565b82121561092057fe5b610928610454565b909102919050565b600061093a610454565b610942610454565b838161094a57fe5b0502909103919050565b60006104a7838361096361086e565b610640565b6000610972610454565b61097a610454565b838161098257fe5b050292915050565b6000610994610454565b8214156109a25750816104aa565b816109a957fe5b6109b1610462565b8213156109ba57fe5b6104a7836109c784610843565b6104b056fea265627a7a72315820a6a9628fdf8fe321358374337bf743f8a3234bb11841b1400dcacc676eb4c8b964736f6c63430005110032",
    "linkReferences": {}
  },
  "methodIdentifiers": {
    "abs(int256)": "1b5ac4b5",
    "add(int256,int256)": "a5f3c23b",
    "convertFixed(int256,uint8,uint8)": "4daaea53",
    "digits()": "9e20437c",
    "divide(int256,int256)": "f5984236",
    "fixed1()": "2179bb6c",
    "fractional(int256)": "cf94513a",
    "fromFixed(int256)": "0e998993",
    "fromFixed(int256,uint8)": "393ca446",
    "integer(int256)": "e179f252",
    "maxFixedAdd()": "925d6dfd",
    "maxFixedDiv()": "7bc140ea",
    "maxFixedDivisor()": "239909ea",
    "maxFixedMul()": "2fd81f46",
    "maxFixedSub()": "a0601be7",
    "maxInt256()": "93b027b4",
    "maxNewFixed()": "f800d672",
    "minInt256()": "7c1bd7c8",
    "minNewFixed()": "718db30a",
    "mulPrecision()": "9ca7eb76",
    "multiply(int256,int256)": "3c4308a8",
    "newFixed(int256)": "bd5cbd62",
    "newFixed(int256,uint8)": "d6c1528b",
    "newFixedFraction(int256,int256)": "95ac72cf",
    "reciprocal(int256)": "9c15bca4",
    "subtract(int256,int256)": "b93ea812"
  },
  "id": 0
}