{
  "abi": [
    {
      "inputs": [
        {
          "internalType": "int128",
          "name": "real_value",
          "type": "int128"
        }
      ],
      "name": "abs",
      "outputs": [
        {
          "internalType": "int128",
          "name": "",
          "type": "int128"
        }
      ],
      "stateMutability": "pure",
      "type": "function"
    },
    {
      "inputs": [
        {
          "internalType": "int128",
          "name": "real_y",
          "type": "int128"
        },
        {
          "internalType": "int128",
          "name": "real_x",
          "type": "int128"
        }
      ],
      "name": "atan2",
      "outputs": [
        {
          "internalType": "int128",
          "name": "",
          "type": "int128"
        }
      ],
      "stateMutability": "pure",
      "type": "function"
    },
    {
      "inputs": [
        {
          "internalType": "int128",
          "name": "real_arg",
          "type": "int128"
        }
      ],
      "name": "atanSmall",
      "outputs": [
        {
          "internalType": "int128",
          "name": "",
          "type": "int128"
        }
      ],
      "stateMutability": "pure",
      "type": "function"
    },
    {
      "inputs": [
        {
          "internalType": "int128",
          "name": "real_arg",
          "type": "int128"
        }
      ],
      "name": "cos",
      "outputs": [
        {
          "internalType": "int128",
          "name": "",
          "type": "int128"
        }
      ],
      "stateMutability": "pure",
      "type": "function"
    },
    {
      "inputs": [
        {
          "internalType": "int128",
          "name": "real_numerator",
          "type": "int128"
        },
        {
          "internalType": "int128",
          "name": "real_denominator",
          "type": "int128"
        }
      ],
      "name": "div",
      "outputs": [
        {
          "internalType": "int128",
          "name": "",
          "type": "int128"
        }
      ],
      "stateMutability": "pure",
      "type": "function"
    },
    {
      "inputs": [
        {
          "internalType": "int128",
          "name": "real_arg",
          "type": "int128"
        }
      ],
      "name": "exp",
      "outputs": [
        {
          "internalType": "int128",
          "name": "",
          "type": "int128"
        }
      ],
      "stateMutability": "pure",
      "type": "function"
    },
    {
      "inputs": [
        {
          "internalType": "int128",
          "name": "real_arg",
          "type": "int128"
        },
        {
          "internalType": "int256",
          "name": "max_iterations",
          "type": "int256"
        }
      ],
      "name": "expLimited",
      "outputs": [
        {
          "internalType": "int128",
          "name": "",
          "type": "int128"
        }
      ],
      "stateMutability": "pure",
      "type": "function"
    },
    {
      "inputs": [
        {
          "internalType": "int128",
          "name": "real_value",
          "type": "int128"
        }
      ],
      "name": "fpart",
      "outputs": [
        {
          "internalType": "int128",
          "name": "",
          "type": "int128"
        }
      ],
      "stateMutability": "pure",
      "type": "function"
    },
    {
      "inputs": [
        {
          "internalType": "int128",
          "name": "real_value",
          "type": "int128"
        }
      ],
      "name": "fpartSigned",
      "outputs": [
        {
          "internalType": "int128",
          "name": "",
          "type": "int128"
        }
      ],
      "stateMutability": "pure",
      "type": "function"
    },
    {
      "inputs": [
        {
          "internalType": "int88",
          "name": "numerator",
          "type": "int88"
        },
        {
          "internalType": "int88",
          "name": "denominator",
          "type": "int88"
        }
      ],
      "name": "fraction",
      "outputs": [
        {
          "internalType": "int128",
          "name": "",
          "type": "int128"
        }
      ],
      "stateMutability": "pure",
      "type": "function"
    },
    {
      "inputs": [
        {
          "internalType": "int128",
          "name": "real_value",
          "type": "int128"
        }
      ],
      "name": "fractionalBits",
      "outputs": [
        {
          "internalType": "uint40",
          "name": "",
          "type": "uint40"
        }
      ],
      "stateMutability": "pure",
      "type": "function"
    },
    {
      "inputs": [
        {
          "internalType": "int128",
          "name": "real_value",
          "type": "int128"
        }
      ],
      "name": "fromReal",
      "outputs": [
        {
          "internalType": "int88",
          "name": "",
          "type": "int88"
        }
      ],
      "stateMutability": "pure",
      "type": "function"
    },
    {
      "inputs": [
        {
          "internalType": "int128",
          "name": "real_value",
          "type": "int128"
        }
      ],
      "name": "ipart",
      "outputs": [
        {
          "internalType": "int128",
          "name": "",
          "type": "int128"
        }
      ],
      "stateMutability": "pure",
      "type": "function"
    },
    {
      "inputs": [
        {
          "internalType": "int128",
          "name": "real_base",
          "type": "int128"
        },
        {
          "internalType": "int88",
          "name": "exponent",
          "type": "int88"
        }
      ],
      "name": "ipow",
      "outputs": [
        {
          "internalType": "int128",
          "name": "",
          "type": "int128"
        }
      ],
      "stateMutability": "pure",
      "type": "function"
    },
    {
      "inputs": [
        {
          "internalType": "int128",
          "name": "real_arg",
          "type": "int128"
        }
      ],
      "name": "ln",
      "outputs": [
        {
          "internalType": "int128",
          "name": "",
          "type": "int128"
        }
      ],
      "stateMutability": "pure",
      "type": "function"
    },
    {
      "inputs": [
        {
          "internalType": "int128",
          "name": "real_arg",
          "type": "int128"
        },
        {
          "internalType": "int256",
          "name": "max_iterations",
          "type": "int256"
        }
      ],
      "name": "lnLimited",
      "outputs": [
        {
          "internalType": "int128",
          "name": "",
          "type": "int128"
        }
      ],
      "stateMutability": "pure",
      "type": "function"
    },
    {
      "inputs": [
        {
          "internalType": "int128",
          "name": "real_a",
          "type": "int128"
        },
        {
          "internalType": "int128",
          "name": "real_b",
          "type": "int128"
        }
      ],
      "name": "mul",
      "outputs": [
        {
          "internalType": "int128",
          "name": "",
          "type": "int128"
        }
      ],
      "stateMutability": "pure",
      "type": "function"
    },
    {
      "inputs": [
        {
          "internalType": "int128",
          "name": "real_base",
          "type": "int128"
        },
        {
          "internalType": "int128",
          "name": "real_exponent",
          "type": "int128"
        }
      ],
      "name": "pow",
      "outputs": [
        {
          "internalType": "int128",
          "name": "",
          "type": "int128"
        }
      ],
      "stateMutability": "pure",
      "type": "function"
    },
    {
      "inputs": [
        {
          "internalType": "int128",
          "name": "real_value",
          "type": "int128"
        }
      ],
      "name": "round",
      "outputs": [
        {
          "internalType": "int128",
          "name": "",
          "type": "int128"
        }
      ],
      "stateMutability": "pure",
      "type": "function"
    },
    {
      "inputs": [
        {
          "internalType": "int128",
          "name": "real_arg",
          "type": "int128"
        }
      ],
      "name": "sin",
      "outputs": [
        {
          "internalType": "int128",
          "name": "",
          "type": "int128"
        }
      ],
      "stateMutability": "pure",
      "type": "function"
    },
    {
      "inputs": [
        {
          "internalType": "int128",
          "name": "real_arg",
          "type": "int128"
        },
        {
          "internalType": "int88",
          "name": "max_iterations",
          "type": "int88"
        }
      ],
      "name": "sinLimited",
      "outputs": [
        {
          "internalType": "int128",
          "name": "",
          "type": "int128"
        }
      ],
      "stateMutability": "pure",
      "type": "function"
    },
    {
      "inputs": [
        {
          "internalType": "int128",
          "name": "real_arg",
          "type": "int128"
        }
      ],
      "name": "sqrt",
      "outputs": [
        {
          "internalType": "int128",
          "name": "",
          "type": "int128"
        }
      ],
      "stateMutability": "pure",
      "type": "function"
    },
    {
      "inputs": [
        {
          "internalType": "int128",
          "name": "real_arg",
          "type": "int128"
        }
      ],
      "name": "tan",
      "outputs": [
        {
          "internalType": "int128",
          "name": "",
          "type": "int128"
        }
      ],
      "stateMutability": "pure",
      "type": "function"
    },
    {
      "inputs": [
        {
          "internalType": "int88",
          "name": "ipart",
          "type": "int88"
        }
      ],
      "name": "toReal",
      "outputs": [
        {
          "internalType": "int128",
          "name": "",
          "type": "int128"
        }
      ],
      "stateMutability": "pure",
      "type": "function"
    }
  ],
  "bytecode": {
    "object": "0x610db8610026600b82828239805160001a60731461001957fe5b30600052607381538281f3fe73000000000000000000000000000000000000000030146080604052600436106101a25760003560e01c806392aea05a116100ed578063b697214611610096578063e01e92d211610070578063e01e92d2146104d5578063f0033b43146104f5578063f5a5d50314610515576101a2565b8063b69721461461046b578063bf93961c14610495578063d271b067146104b5576101a2565b8063b0cbaab2116100c7578063b0cbaab2146103fb578063b28332d31461041b578063b475396c1461044b576101a2565b806392aea05a14610395578063935f43b2146103bb578063a807adca146103db576101a2565b80633e2f55ca1161014f5780636e3daae4116101295780636e3daae41461032f57806382396bc61461034f57806384f1bd4e14610375576101a2565b80633e2f55ca146102b25780634672f555146102db57806367179ffb14610305576101a2565b806325f39a631161018057806325f39a63146102485780632a663686146102725780632d8e0c9b14610292576101a2565b8063082ec556146101a757806315dbfe28146101e75780631dade0d41461021e575b600080fd5b6101d0600480360360408110156101bd57600080fd5b508035600f0b9060200135600a0b610535565b60408051600f9290920b8252519081900360200190f35b610207600480360360208110156101fd57600080fd5b5035600f0b61059a565b60408051600a9290920b8252519081900360200190f35b6101d06004803603604081101561023457600080fd5b508035600a90810b9160200135900b6105ad565b6101d06004803603604081101561025e57600080fd5b508035600f90810b9160200135900b6105c4565b6101d06004803603602081101561028857600080fd5b5035600f0b6105e6565b6101d0600480360360208110156102a857600080fd5b5035600f0b610611565b6101d0600480360360408110156102c857600080fd5b508035600f0b9060200135600a0b6106a1565b6101d0600480360360408110156102f157600080fd5b508035600f90810b9160200135900b61075c565b6101d06004803603604081101561031b57600080fd5b508035600f90810b9160200135900b610817565b6101d06004803603602081101561034557600080fd5b5035600f0b6108c9565b6101d06004803603604081101561036557600080fd5b508035600f0b90602001356108de565b6101d06004803603602081101561038b57600080fd5b5035600f0b6109da565b6101d0600480360360408110156103ab57600080fd5b508035600f0b90602001356109fd565b6101d0600480360360208110156103d157600080fd5b5035600f0b610a47565b6101d0600480360360208110156103f157600080fd5b5035600f0b610a5a565b6101d06004803603602081101561041157600080fd5b5035600f0b610a6d565b6104316004803603602081101561038b57600080fd5b6040805164ffffffffff9092168252519081900360200190f35b6101d06004803603602081101561046157600080fd5b5035600f0b610a7a565b6101d06004803603604081101561048157600080fd5b508035600f90810b9160200135900b610a87565b6101d0600480360360208110156104ab57600080fd5b5035600f0b610a95565b6101d0600480360360208110156104cb57600080fd5b5035600f0b610b03565b6101d0600480360360208110156104eb57600080fd5b5035600f0b610b10565b6101d06004803603602081101561050b57600080fd5b5035600f0b610b2f565b6101d06004803603602081101561052b57600080fd5b5035600a0b610b46565b60008082600a0b121561054757600080fd5b650100000000005b82600a0b6000146105915782600116600a0b60011415610576576105738185610a87565b90505b600183600a0b901d925061058a8485610a87565b935061054f565b90505b92915050565b65010000000000600f82900b055b919050565b60006105916105bb84610b46565b6105c484610b46565b6000600f82810b9084900b6501000000000002816105de57fe5b059392505050565b6000806105f2836109da565b9050600083600f0b121561060a5760000390506105a8565b90506105a8565b60008061061e8384610a87565b905061069a61068d6455232d2bb2610686610679641da06a6e336106726106657ffffffffffffffffffffffffffffffffffffffffffffffffffffffffd1093cbfa89610a87565b640d4ca0c2830188610a87565b0386610a87565b643177d955710185610a87565b0383610a87565b64fffe4bcada0184610a87565b9392505050565b6506487ed5110b600f9290920b91909107906000650100000000007fffffffffffffffffffffffffffffffffffffffffffffffffffffffffffffffff83015b600081600a0b12610749576107186107126106fb8788610a87565b6105c4846002026003018560020260020102610b46565b83610a87565b650100000000000391507fffffffffffffffffffffffffffffffffffffffffffffffffffffffffffffffff016106e0565b506107548482610a87565b949350505050565b600081600f0b60001415610777575065010000000000610594565b82600f0b6000141561079c57600082600f0b121561079457600080fd5b506000610594565b6107a5826109da565b600f0b6107ec57600082600f0b13156107d1576107ca836107c58461059a565b610535565b9050610594565b6107ca650100000000006105c4856107c5600087900361059a565b600083600f0b12156107fd57600080fd5b6105916108128361080d86610b03565b610a87565b610a6d565b600080600061082584610b10565b9050600061083286610b10565b905080600f0b82600f0b131561085b5761085461084f82846105c4565b610611565b9250610873565b61086861084f83836105c4565b6501921fb544430392505b600085600f0b12156108ac57600086600f0b121561089b576503243f6a8886830392506108a7565b826503243f6a88860392505b6108bf565b600086600f0b12156108bf578260000392505b5090949350505050565b6000610594826501000000000060011d61075c565b60008083600f0b136108ef57600080fd5b600f83900b65010000000000141561090957506000610594565b60008061091585610b54565b909250905060006109507fffffffffffffffffffffffffffffffffffffffffffffffffffffff000000000084016501000000000085016105c4565b90506000805b8681600a0b12156109a35760006109856109768584600202600101610535565b6105c484600202600101610b46565b928301929050600f81900b61099a57506109a3565b50600101610956565b506109b48165020000000000610a87565b9050806109ce6109c385610b46565b64b17217f7d2610a87565b01979650505050505050565b6000650100000000006109ec83610b10565b600f0b816109f657fe5b0792915050565b60008065010000000000815b8481600a0b12156108bf5791810191610a2c8261080d886105c460018601610b46565b915081600f0b60001415610a3f576108bf565b600101610a09565b6000610a52826105e6565b909103919050565b60006105946501921fb544438301610a7a565b60006105948260646109fd565b600061059482600f6106a1565b600f91820b910b0260281d90565b600080610aa18361059a565b90506000648000000000610ab4856109da565b1664ffffffffff161115610afa576000600f84900b1215610af6577fffffffffffffffffffffffffffffffffffffffffffffffffffffffffffffffff01610afa565b6001015b61069a81610b46565b60006105948260646108de565b60008082600f0b1315610b245750806105a8565b8160000390506105a8565b6000610594610b3d83610a7a565b6105c484610a5a565b600a0b650100000000000290565b600080600083600f0b13610b6757600080fd5b6000610b7d610b7885600f0b610be2565b610c1c565b60ff169050602881039150600082600a0b1215610bb65781600003600a0b600f0b84600f0b6000821215610bad57fe5b901b9250610bdc565b600082600a0b12610bdc5781600a0b600f0b84600f0b6000821215610bd757fe5b901d92505b50915091565b600181811c909117600281901c17600481901c17600881901c17601081901c17602081901c17604081901c17608081901c179081901c1890565b60007faaaaaaaaaaaaaaaaaaaaaaaaaaaaaaaaaaaaaaaaaaaaaaaaaaaaaaaaaaaaaaaa821615610c4a576001175b7fcccccccccccccccccccccccccccccccccccccccccccccccccccccccccccccccc821615610c76576002175b7ff0f0f0f0f0f0f0f0f0f0f0f0f0f0f0f0f0f0f0f0f0f0f0f0f0f0f0f0f0f0f0f0821615610ca2576004175b7fff00ff00ff00ff00ff00ff00ff00ff00ff00ff00ff00ff00ff00ff00ff00ff00821615610cce576008175b7fffff0000ffff0000ffff0000ffff0000ffff0000ffff0000ffff0000ffff0000821615610cfa576010175b7fffffffff00000000ffffffff00000000ffffffff00000000ffffffff00000000821615610d26576020175b7fffffffffffffffff0000000000000000ffffffffffffffff0000000000000000821615610d52576040175b7fffffffffffffffffffffffffffffffff000000000000000000000000000000008216156105a85760801791905056fea26469706673582212209143f1c9b153c5da1439b6ba4540a641d45a5a74ecbab804a882f3a50f80b50464736f6c634300060c0033",
    "linkReferences": {}
  },
  "methodIdentifiers": {
    "abs(int128)": "e01e92d2",
    "atan2(int128,int128)": "67179ffb",
    "atanSmall(int128)": "2d8e0c9b",
    "cos(int128)": "a807adca",
    "div(int128,int128)": "25f39a63",
    "exp(int128)": "b0cbaab2",
    "expLimited(int128,int256)": "92aea05a",
    "fpart(int128)": "84f1bd4e",
    "fpartSigned(int128)": "2a663686",
    "fraction(int88,int88)": "1dade0d4",
    "fractionalBits(int128)": "b28332d3",
    "fromReal(int128)": "15dbfe28",
    "ipart(int128)": "935f43b2",
    "ipow(int128,int88)": "082ec556",
    "ln(int128)": "d271b067",
    "lnLimited(int128,int256)": "82396bc6",
    "mul(int128,int128)": "b6972146",
    "pow(int128,int128)": "4672f555",
    "round(int128)": "bf93961c",
    "sin(int128)": "b475396c",
    "sinLimited(int128,int88)": "3e2f55ca",
    "sqrt(int128)": "6e3daae4",
    "tan(int128)": "f0033b43",
    "toReal(int88)": "f5a5d503"
  },
  "id": 0
}